{
  "contractName": "AppNFT",
  "abi": [
    {
      "inputs": [],
      "stateMutability": "nonpayable",
      "type": "constructor"
    },
    {
      "anonymous": false,
      "inputs": [
        {
          "indexed": true,
          "internalType": "address",
          "name": "owner",
          "type": "address"
        },
        {
          "indexed": true,
          "internalType": "address",
          "name": "approved",
          "type": "address"
        },
        {
          "indexed": true,
          "internalType": "uint256",
          "name": "tokenId",
          "type": "uint256"
        }
      ],
      "name": "Approval",
      "type": "event"
    },
    {
      "anonymous": false,
      "inputs": [
        {
          "indexed": true,
          "internalType": "address",
          "name": "owner",
          "type": "address"
        },
        {
          "indexed": true,
          "internalType": "address",
          "name": "operator",
          "type": "address"
        },
        {
          "indexed": false,
          "internalType": "bool",
          "name": "approved",
          "type": "bool"
        }
      ],
      "name": "ApprovalForAll",
      "type": "event"
    },
    {
      "anonymous": false,
      "inputs": [
        {
          "indexed": true,
          "internalType": "address",
          "name": "from",
          "type": "address"
        },
        {
          "indexed": true,
          "internalType": "address",
          "name": "to",
          "type": "address"
        },
        {
          "indexed": true,
          "internalType": "uint256",
          "name": "tokenId",
          "type": "uint256"
        }
      ],
      "name": "Transfer",
      "type": "event"
    },
    {
      "inputs": [
        {
          "internalType": "uint256",
          "name": "",
          "type": "uint256"
        }
      ],
      "name": "_appNameMap",
      "outputs": [
        {
          "internalType": "string",
          "name": "",
          "type": "string"
        }
      ],
      "stateMutability": "view",
      "type": "function",
      "constant": true
    },
    {
      "inputs": [
        {
          "internalType": "address",
          "name": "to",
          "type": "address"
        },
        {
          "internalType": "uint256",
          "name": "tokenId",
          "type": "uint256"
        }
      ],
      "name": "approve",
      "outputs": [],
      "stateMutability": "nonpayable",
      "type": "function"
    },
    {
      "inputs": [
        {
          "internalType": "address",
          "name": "owner",
          "type": "address"
        }
      ],
      "name": "balanceOf",
      "outputs": [
        {
          "internalType": "uint256",
          "name": "",
          "type": "uint256"
        }
      ],
      "stateMutability": "view",
      "type": "function",
      "constant": true
    },
    {
      "inputs": [
        {
          "internalType": "uint256",
          "name": "tokenId",
          "type": "uint256"
        }
      ],
      "name": "getApproved",
      "outputs": [
        {
          "internalType": "address",
          "name": "",
          "type": "address"
        }
      ],
      "stateMutability": "view",
      "type": "function",
      "constant": true
    },
    {
      "inputs": [
        {
          "internalType": "address",
          "name": "owner",
          "type": "address"
        },
        {
          "internalType": "address",
          "name": "operator",
          "type": "address"
        }
      ],
      "name": "isApprovedForAll",
      "outputs": [
        {
          "internalType": "bool",
          "name": "",
          "type": "bool"
        }
      ],
      "stateMutability": "view",
      "type": "function",
      "constant": true
    },
    {
      "inputs": [],
      "name": "name",
      "outputs": [
        {
          "internalType": "string",
          "name": "",
          "type": "string"
        }
      ],
      "stateMutability": "view",
      "type": "function",
      "constant": true
    },
    {
      "inputs": [
        {
          "internalType": "uint256",
          "name": "tokenId",
          "type": "uint256"
        }
      ],
      "name": "ownerOf",
      "outputs": [
        {
          "internalType": "address",
          "name": "",
          "type": "address"
        }
      ],
      "stateMutability": "view",
      "type": "function",
      "constant": true
    },
    {
      "inputs": [
        {
          "internalType": "address",
          "name": "from",
          "type": "address"
        },
        {
          "internalType": "address",
          "name": "to",
          "type": "address"
        },
        {
          "internalType": "uint256",
          "name": "tokenId",
          "type": "uint256"
        }
      ],
      "name": "safeTransferFrom",
      "outputs": [],
      "stateMutability": "nonpayable",
      "type": "function"
    },
    {
      "inputs": [
        {
          "internalType": "address",
          "name": "from",
          "type": "address"
        },
        {
          "internalType": "address",
          "name": "to",
          "type": "address"
        },
        {
          "internalType": "uint256",
          "name": "tokenId",
          "type": "uint256"
        },
        {
          "internalType": "bytes",
          "name": "_data",
          "type": "bytes"
        }
      ],
      "name": "safeTransferFrom",
      "outputs": [],
      "stateMutability": "nonpayable",
      "type": "function"
    },
    {
      "inputs": [
        {
          "internalType": "address",
          "name": "operator",
          "type": "address"
        },
        {
          "internalType": "bool",
          "name": "approved",
          "type": "bool"
        }
      ],
      "name": "setApprovalForAll",
      "outputs": [],
      "stateMutability": "nonpayable",
      "type": "function"
    },
    {
      "inputs": [
        {
          "internalType": "bytes4",
          "name": "interfaceId",
          "type": "bytes4"
        }
      ],
      "name": "supportsInterface",
      "outputs": [
        {
          "internalType": "bool",
          "name": "",
          "type": "bool"
        }
      ],
      "stateMutability": "view",
      "type": "function",
      "constant": true
    },
    {
      "inputs": [],
      "name": "symbol",
      "outputs": [
        {
          "internalType": "string",
          "name": "",
          "type": "string"
        }
      ],
      "stateMutability": "view",
      "type": "function",
      "constant": true
    },
    {
      "inputs": [
        {
          "internalType": "uint256",
          "name": "tokenId",
          "type": "uint256"
        }
      ],
      "name": "tokenURI",
      "outputs": [
        {
          "internalType": "string",
          "name": "",
          "type": "string"
        }
      ],
      "stateMutability": "view",
      "type": "function",
      "constant": true
    },
    {
      "inputs": [
        {
          "internalType": "address",
          "name": "from",
          "type": "address"
        },
        {
          "internalType": "address",
          "name": "to",
          "type": "address"
        },
        {
          "internalType": "uint256",
          "name": "tokenId",
          "type": "uint256"
        }
      ],
      "name": "transferFrom",
      "outputs": [],
      "stateMutability": "nonpayable",
      "type": "function"
    },
    {
      "inputs": [
        {
          "internalType": "address",
          "name": "sender",
          "type": "address"
        },
        {
          "internalType": "string",
          "name": "tokenURI",
          "type": "string"
        },
        {
          "internalType": "string",
          "name": "name",
          "type": "string"
        }
      ],
      "name": "add",
      "outputs": [
        {
          "internalType": "uint256",
          "name": "",
          "type": "uint256"
        }
      ],
      "stateMutability": "nonpayable",
      "type": "function"
    },
    {
      "inputs": [],
      "name": "currentCount",
      "outputs": [
        {
          "internalType": "uint256",
          "name": "",
          "type": "uint256"
        }
      ],
      "stateMutability": "view",
      "type": "function",
      "constant": true
    },
    {
      "inputs": [
        {
          "internalType": "uint256",
          "name": "tokenId",
          "type": "uint256"
        }
      ],
      "name": "getName",
      "outputs": [
        {
          "internalType": "string",
          "name": "",
          "type": "string"
        }
      ],
      "stateMutability": "view",
      "type": "function",
      "constant": true
    }
  ],
  "bytecode": "0x60806040523480156200001157600080fd5b506040518060400160405280600981526020017f426974466f7265737400000000000000000000000000000000000000000000008152506040518060400160405280600381526020017f4246540000000000000000000000000000000000000000000000000000000000815250816000908051906020019062000096929190620000b8565b508060019080519060200190620000af929190620000b8565b505050620001cd565b828054620000c69062000168565b90600052602060002090601f016020900481019282620000ea576000855562000136565b82601f106200010557805160ff191683800117855562000136565b8280016001018555821562000136579182015b828111156200013557825182559160200191906001019062000118565b5b50905062000145919062000149565b5090565b5b80821115620001645760008160009055506001016200014a565b5090565b600060028204905060018216806200018157607f821691505b602082108114156200019857620001976200019e565b5b50919050565b7f4e487b7100000000000000000000000000000000000000000000000000000000600052602260045260246000fd5b6132cc80620001dd6000396000f3fe608060405234801561001057600080fd5b506004361061010b5760003560e01c80636b8ff574116100a2578063a22cb46511610071578063a22cb465146102f0578063b88d4fde1461030c578063c732d20114610328578063c87b56dd14610346578063e985e9c5146103765761010b565b80636b8ff574146102425780636e3eb43f1461027257806370a08231146102a257806395d89b41146102d25761010b565b806323b872dd116100de57806323b872dd146101aa57806342842e0e146101c657806346bc7fd9146101e25780636352211e146102125761010b565b806301ffc9a71461011057806306fdde0314610140578063081812fc1461015e578063095ea7b31461018e575b600080fd5b61012a600480360381019061012591906120fb565b6103a6565b6040516101379190612649565b60405180910390f35b610148610488565b6040516101559190612664565b60405180910390f35b6101786004803603810190610173919061219e565b61051a565b60405161018591906125e2565b60405180910390f35b6101a860048036038101906101a391906120bb565b61059f565b005b6101c460048036038101906101bf9190611f1a565b6106b7565b005b6101e060048036038101906101db9190611f1a565b610717565b005b6101fc60048036038101906101f79190612030565b610737565b60405161020991906128c6565b60405180910390f35b61022c6004803603810190610227919061219e565b6109a7565b60405161023991906125e2565b60405180910390f35b61025c6004803603810190610257919061219e565b610a59565b6040516102699190612664565b60405180910390f35b61028c6004803603810190610287919061219e565b610afe565b6040516102999190612664565b60405180910390f35b6102bc60048036038101906102b79190611ead565b610b9e565b6040516102c991906128c6565b60405180910390f35b6102da610c56565b6040516102e79190612664565b60405180910390f35b61030a60048036038101906103059190611ff0565b610ce8565b005b61032660048036038101906103219190611f6d565b610cfe565b005b610330610d60565b60405161033d91906128c6565b60405180910390f35b610360600480360381019061035b919061219e565b610d71565b60405161036d9190612664565b60405180910390f35b610390600480360381019061038b9190611eda565b610ec3565b60405161039d9190612649565b60405180910390f35b60007f80ac58cd000000000000000000000000000000000000000000000000000000007bffffffffffffffffffffffffffffffffffffffffffffffffffffffff1916827bffffffffffffffffffffffffffffffffffffffffffffffffffffffff1916148061047157507f5b5e139f000000000000000000000000000000000000000000000000000000007bffffffffffffffffffffffffffffffffffffffffffffffffffffffff1916827bffffffffffffffffffffffffffffffffffffffffffffffffffffffff1916145b80610481575061048082610f57565b5b9050919050565b60606000805461049790612b31565b80601f01602080910402602001604051908101604052809291908181526020018280546104c390612b31565b80156105105780601f106104e557610100808354040283529160200191610510565b820191906000526020600020905b8154815290600101906020018083116104f357829003601f168201915b5050505050905090565b600061052582610fc1565b610564576040517f08c379a000000000000000000000000000000000000000000000000000000000815260040161055b90612806565b60405180910390fd5b6004600083815260200190815260200160002060009054906101000a900473ffffffffffffffffffffffffffffffffffffffff169050919050565b60006105aa826109a7565b90508073ffffffffffffffffffffffffffffffffffffffff168373ffffffffffffffffffffffffffffffffffffffff16141561061b576040517f08c379a000000000000000000000000000000000000000000000000000000000815260040161061290612846565b60405180910390fd5b8073ffffffffffffffffffffffffffffffffffffffff1661063a61102d565b73ffffffffffffffffffffffffffffffffffffffff16148061066957506106688161066361102d565b610ec3565b5b6106a8576040517f08c379a000000000000000000000000000000000000000000000000000000000815260040161069f90612746565b60405180910390fd5b6106b28383611035565b505050565b6106c86106c261102d565b826110ee565b610707576040517f08c379a00000000000000000000000000000000000000000000000000000000081526004016106fe90612886565b60405180910390fd5b6107128383836111cc565b505050565b61073283838360405180602001604052806000815250610cfe565b505050565b6000806107446007611433565b905060008060005b838110156108d157856040516020016107659190612590565b604051602081830303815290604052805190602001206008600083815260200190815260200160002060405160200161079e91906125cb565b6040516020818303038152906040528051906020012014156107c357600192506108d1565b6107cc81610fc1565b80156108b05750866040516020016107e49190612590565b604051602081830303815290604052805190602001203073ffffffffffffffffffffffffffffffffffffffff1663c87b56dd836040518263ffffffff1660e01b815260040161083391906128c6565b60006040518083038186803b15801561084b57600080fd5b505afa15801561085f573d6000803e3d6000fd5b505050506040513d6000823e3d601f19601f820116820180604052508101906108889190612155565b6040516020016108989190612590565b60405160208183030381529060405280519060200120145b156108be57600191506108d1565b80806108c990612b94565b91505061074c565b508115610913576040517f08c379a000000000000000000000000000000000000000000000000000000000815260040161090a906128a6565b60405180910390fd5b8015610954576040517f08c379a000000000000000000000000000000000000000000000000000000000815260040161094b90612866565b60405180910390fd5b61095e8784611441565b610968838761161b565b8460086000858152602001908152602001600020908051906020019061098f929190611c51565b5061099a600761168f565b8293505050509392505050565b6000806002600084815260200190815260200160002060009054906101000a900473ffffffffffffffffffffffffffffffffffffffff169050600073ffffffffffffffffffffffffffffffffffffffff168173ffffffffffffffffffffffffffffffffffffffff161415610a50576040517f08c379a0000000000000000000000000000000000000000000000000000000008152600401610a4790612786565b60405180910390fd5b80915050919050565b6060600860008381526020019081526020016000208054610a7990612b31565b80601f0160208091040260200160405190810160405280929190818152602001828054610aa590612b31565b8015610af25780601f10610ac757610100808354040283529160200191610af2565b820191906000526020600020905b815481529060010190602001808311610ad557829003601f168201915b50505050509050919050565b60086020528060005260406000206000915090508054610b1d90612b31565b80601f0160208091040260200160405190810160405280929190818152602001828054610b4990612b31565b8015610b965780601f10610b6b57610100808354040283529160200191610b96565b820191906000526020600020905b815481529060010190602001808311610b7957829003601f168201915b505050505081565b60008073ffffffffffffffffffffffffffffffffffffffff168273ffffffffffffffffffffffffffffffffffffffff161415610c0f576040517f08c379a0000000000000000000000000000000000000000000000000000000008152600401610c0690612766565b60405180910390fd5b600360008373ffffffffffffffffffffffffffffffffffffffff1673ffffffffffffffffffffffffffffffffffffffff168152602001908152602001600020549050919050565b606060018054610c6590612b31565b80601f0160208091040260200160405190810160405280929190818152602001828054610c9190612b31565b8015610cde5780601f10610cb357610100808354040283529160200191610cde565b820191906000526020600020905b815481529060010190602001808311610cc157829003601f168201915b5050505050905090565b610cfa610cf361102d565b83836116a5565b5050565b610d0f610d0961102d565b836110ee565b610d4e576040517f08c379a0000000000000000000000000000000000000000000000000000000008152600401610d4590612886565b60405180910390fd5b610d5a84848484611812565b50505050565b6000610d6c6007611433565b905090565b6060610d7c82610fc1565b610dbb576040517f08c379a0000000000000000000000000000000000000000000000000000000008152600401610db2906127e6565b60405180910390fd5b6000600660008481526020019081526020016000208054610ddb90612b31565b80601f0160208091040260200160405190810160405280929190818152602001828054610e0790612b31565b8015610e545780601f10610e2957610100808354040283529160200191610e54565b820191906000526020600020905b815481529060010190602001808311610e3757829003601f168201915b505050505090506000610e6561186e565b9050600081511415610e7b578192505050610ebe565b600082511115610eb0578082604051602001610e989291906125a7565b60405160208183030381529060405292505050610ebe565b610eb984611885565b925050505b919050565b6000600560008473ffffffffffffffffffffffffffffffffffffffff1673ffffffffffffffffffffffffffffffffffffffff16815260200190815260200160002060008373ffffffffffffffffffffffffffffffffffffffff1673ffffffffffffffffffffffffffffffffffffffff16815260200190815260200160002060009054906101000a900460ff16905092915050565b60007f01ffc9a7000000000000000000000000000000000000000000000000000000007bffffffffffffffffffffffffffffffffffffffffffffffffffffffff1916827bffffffffffffffffffffffffffffffffffffffffffffffffffffffff1916149050919050565b60008073ffffffffffffffffffffffffffffffffffffffff166002600084815260200190815260200160002060009054906101000a900473ffffffffffffffffffffffffffffffffffffffff1673ffffffffffffffffffffffffffffffffffffffff1614159050919050565b600033905090565b816004600083815260200190815260200160002060006101000a81548173ffffffffffffffffffffffffffffffffffffffff021916908373ffffffffffffffffffffffffffffffffffffffff160217905550808273ffffffffffffffffffffffffffffffffffffffff166110a8836109a7565b73ffffffffffffffffffffffffffffffffffffffff167f8c5be1e5ebec7d5bd14f71427d1e84f3dd0314c0f7b2291e5b200ac8c7c3b92560405160405180910390a45050565b60006110f982610fc1565b611138576040517f08c379a000000000000000000000000000000000000000000000000000000000815260040161112f90612726565b60405180910390fd5b6000611143836109a7565b90508073ffffffffffffffffffffffffffffffffffffffff168473ffffffffffffffffffffffffffffffffffffffff16148061118557506111848185610ec3565b5b806111c357508373ffffffffffffffffffffffffffffffffffffffff166111ab8461051a565b73ffffffffffffffffffffffffffffffffffffffff16145b91505092915050565b8273ffffffffffffffffffffffffffffffffffffffff166111ec826109a7565b73ffffffffffffffffffffffffffffffffffffffff1614611242576040517f08c379a0000000000000000000000000000000000000000000000000000000008152600401611239906126a6565b60405180910390fd5b600073ffffffffffffffffffffffffffffffffffffffff168273ffffffffffffffffffffffffffffffffffffffff1614156112b2576040517f08c379a00000000000000000000000000000000000000000000000000000000081526004016112a9906126e6565b60405180910390fd5b6112bd83838361192c565b6112c8600082611035565b6001600360008573ffffffffffffffffffffffffffffffffffffffff1673ffffffffffffffffffffffffffffffffffffffff16815260200190815260200160002060008282546113189190612a47565b925050819055506001600360008473ffffffffffffffffffffffffffffffffffffffff1673ffffffffffffffffffffffffffffffffffffffff168152602001908152602001600020600082825461136f91906129c0565b92505081905550816002600083815260200190815260200160002060006101000a81548173ffffffffffffffffffffffffffffffffffffffff021916908373ffffffffffffffffffffffffffffffffffffffff160217905550808273ffffffffffffffffffffffffffffffffffffffff168473ffffffffffffffffffffffffffffffffffffffff167fddf252ad1be2c89b69c2b068fc378daa952ba7f163c4a11628f55a4df523b3ef60405160405180910390a461142e838383611931565b505050565b600081600001549050919050565b600073ffffffffffffffffffffffffffffffffffffffff168273ffffffffffffffffffffffffffffffffffffffff1614156114b1576040517f08c379a00000000000000000000000000000000000000000000000000000000081526004016114a8906127c6565b60405180910390fd5b6114ba81610fc1565b156114fa576040517f08c379a00000000000000000000000000000000000000000000000000000000081526004016114f1906126c6565b60405180910390fd5b6115066000838361192c565b6001600360008473ffffffffffffffffffffffffffffffffffffffff1673ffffffffffffffffffffffffffffffffffffffff168152602001908152602001600020600082825461155691906129c0565b92505081905550816002600083815260200190815260200160002060006101000a81548173ffffffffffffffffffffffffffffffffffffffff021916908373ffffffffffffffffffffffffffffffffffffffff160217905550808273ffffffffffffffffffffffffffffffffffffffff16600073ffffffffffffffffffffffffffffffffffffffff167fddf252ad1be2c89b69c2b068fc378daa952ba7f163c4a11628f55a4df523b3ef60405160405180910390a461161760008383611931565b5050565b61162482610fc1565b611663576040517f08c379a000000000000000000000000000000000000000000000000000000000815260040161165a906127a6565b60405180910390fd5b8060066000848152602001908152602001600020908051906020019061168a929190611c51565b505050565b6001816000016000828254019250508190555050565b8173ffffffffffffffffffffffffffffffffffffffff168373ffffffffffffffffffffffffffffffffffffffff161415611714576040517f08c379a000000000000000000000000000000000000000000000000000000000815260040161170b90612706565b60405180910390fd5b80600560008573ffffffffffffffffffffffffffffffffffffffff1673ffffffffffffffffffffffffffffffffffffffff16815260200190815260200160002060008473ffffffffffffffffffffffffffffffffffffffff1673ffffffffffffffffffffffffffffffffffffffff16815260200190815260200160002060006101000a81548160ff0219169083151502179055508173ffffffffffffffffffffffffffffffffffffffff168373ffffffffffffffffffffffffffffffffffffffff167f17307eab39ab6107e8899845ad3d59bd9653f200f220920489ca2b5937696c31836040516118059190612649565b60405180910390a3505050565b61181d8484846111cc565b61182984848484611936565b611868576040517f08c379a000000000000000000000000000000000000000000000000000000000815260040161185f90612686565b60405180910390fd5b50505050565b606060405180602001604052806000815250905090565b606061189082610fc1565b6118cf576040517f08c379a00000000000000000000000000000000000000000000000000000000081526004016118c690612826565b60405180910390fd5b60006118d961186e565b905060008151116118f95760405180602001604052806000815250611924565b8061190384611acd565b6040516020016119149291906125a7565b6040516020818303038152906040525b915050919050565b505050565b505050565b60006119578473ffffffffffffffffffffffffffffffffffffffff16611c2e565b15611ac0578373ffffffffffffffffffffffffffffffffffffffff1663150b7a0261198061102d565b8786866040518563ffffffff1660e01b81526004016119a294939291906125fd565b602060405180830381600087803b1580156119bc57600080fd5b505af19250505080156119ed57506040513d601f19601f820116820180604052508101906119ea9190612128565b60015b611a70573d8060008114611a1d576040519150601f19603f3d011682016040523d82523d6000602084013e611a22565b606091505b50600081511415611a68576040517f08c379a0000000000000000000000000000000000000000000000000000000008152600401611a5f90612686565b60405180910390fd5b805181602001fd5b63150b7a0260e01b7bffffffffffffffffffffffffffffffffffffffffffffffffffffffff1916817bffffffffffffffffffffffffffffffffffffffffffffffffffffffff191614915050611ac5565b600190505b949350505050565b60606000821415611b15576040518060400160405280600181526020017f30000000000000000000000000000000000000000000000000000000000000008152509050611c29565b600082905060005b60008214611b47578080611b3090612b94565b915050600a82611b409190612a16565b9150611b1d565b60008167ffffffffffffffff811115611b6357611b62612cca565b5b6040519080825280601f01601f191660200182016040528015611b955781602001600182028036833780820191505090505b5090505b60008514611c2257600182611bae9190612a47565b9150600a85611bbd9190612bdd565b6030611bc991906129c0565b60f81b818381518110611bdf57611bde612c9b565b5b60200101907effffffffffffffffffffffffffffffffffffffffffffffffffffffffffffff1916908160001a905350600a85611c1b9190612a16565b9450611b99565b8093505050505b919050565b6000808273ffffffffffffffffffffffffffffffffffffffff163b119050919050565b828054611c5d90612b31565b90600052602060002090601f016020900481019282611c7f5760008555611cc6565b82601f10611c9857805160ff1916838001178555611cc6565b82800160010185558215611cc6579182015b82811115611cc5578251825591602001919060010190611caa565b5b509050611cd39190611cd7565b5090565b5b80821115611cf0576000816000905550600101611cd8565b5090565b6000611d07611d0284612906565b6128e1565b905082815260208101848484011115611d2357611d22612cfe565b5b611d2e848285612aef565b509392505050565b6000611d49611d4484612937565b6128e1565b905082815260208101848484011115611d6557611d64612cfe565b5b611d70848285612aef565b509392505050565b6000611d8b611d8684612937565b6128e1565b905082815260208101848484011115611da757611da6612cfe565b5b611db2848285612afe565b509392505050565b600081359050611dc98161323a565b92915050565b600081359050611dde81613251565b92915050565b600081359050611df381613268565b92915050565b600081519050611e0881613268565b92915050565b600082601f830112611e2357611e22612cf9565b5b8135611e33848260208601611cf4565b91505092915050565b600082601f830112611e5157611e50612cf9565b5b8135611e61848260208601611d36565b91505092915050565b600082601f830112611e7f57611e7e612cf9565b5b8151611e8f848260208601611d78565b91505092915050565b600081359050611ea78161327f565b92915050565b600060208284031215611ec357611ec2612d08565b5b6000611ed184828501611dba565b91505092915050565b60008060408385031215611ef157611ef0612d08565b5b6000611eff85828601611dba565b9250506020611f1085828601611dba565b9150509250929050565b600080600060608486031215611f3357611f32612d08565b5b6000611f4186828701611dba565b9350506020611f5286828701611dba565b9250506040611f6386828701611e98565b9150509250925092565b60008060008060808587031215611f8757611f86612d08565b5b6000611f9587828801611dba565b9450506020611fa687828801611dba565b9350506040611fb787828801611e98565b925050606085013567ffffffffffffffff811115611fd857611fd7612d03565b5b611fe487828801611e0e565b91505092959194509250565b6000806040838503121561200757612006612d08565b5b600061201585828601611dba565b925050602061202685828601611dcf565b9150509250929050565b60008060006060848603121561204957612048612d08565b5b600061205786828701611dba565b935050602084013567ffffffffffffffff81111561207857612077612d03565b5b61208486828701611e3c565b925050604084013567ffffffffffffffff8111156120a5576120a4612d03565b5b6120b186828701611e3c565b9150509250925092565b600080604083850312156120d2576120d1612d08565b5b60006120e085828601611dba565b92505060206120f185828601611e98565b9150509250929050565b60006020828403121561211157612110612d08565b5b600061211f84828501611de4565b91505092915050565b60006020828403121561213e5761213d612d08565b5b600061214c84828501611df9565b91505092915050565b60006020828403121561216b5761216a612d08565b5b600082015167ffffffffffffffff81111561218957612188612d03565b5b61219584828501611e6a565b91505092915050565b6000602082840312156121b4576121b3612d08565b5b60006121c284828501611e98565b91505092915050565b6121d481612a7b565b82525050565b6121e381612a8d565b82525050565b60006121f48261297d565b6121fe8185612993565b935061220e818560208601612afe565b61221781612d0d565b840191505092915050565b600061222d82612988565b61223781856129a4565b9350612247818560208601612afe565b61225081612d0d565b840191505092915050565b600061226682612988565b61227081856129b5565b9350612280818560208601612afe565b80840191505092915050565b6000815461229981612b31565b6122a381866129b5565b945060018216600081146122be57600181146122cf57612302565b60ff19831686528186019350612302565b6122d885612968565b60005b838110156122fa578154818901526001820191506020810190506122db565b838801955050505b50505092915050565b60006123186032836129a4565b915061232382612d1e565b604082019050919050565b600061233b6025836129a4565b915061234682612d6d565b604082019050919050565b600061235e601c836129a4565b915061236982612dbc565b602082019050919050565b60006123816024836129a4565b915061238c82612de5565b604082019050919050565b60006123a46019836129a4565b91506123af82612e34565b602082019050919050565b60006123c7602c836129a4565b91506123d282612e5d565b604082019050919050565b60006123ea6038836129a4565b91506123f582612eac565b604082019050919050565b600061240d602a836129a4565b915061241882612efb565b604082019050919050565b60006124306029836129a4565b915061243b82612f4a565b604082019050919050565b6000612453602e836129a4565b915061245e82612f99565b604082019050919050565b60006124766020836129a4565b915061248182612fe8565b602082019050919050565b60006124996031836129a4565b91506124a482613011565b604082019050919050565b60006124bc602c836129a4565b91506124c782613060565b604082019050919050565b60006124df602f836129a4565b91506124ea826130af565b604082019050919050565b60006125026021836129a4565b915061250d826130fe565b604082019050919050565b6000612525602b836129a4565b91506125308261314d565b604082019050919050565b60006125486031836129a4565b91506125538261319c565b604082019050919050565b600061256b6027836129a4565b9150612576826131eb565b604082019050919050565b61258a81612ae5565b82525050565b600061259c828461225b565b915081905092915050565b60006125b3828561225b565b91506125bf828461225b565b91508190509392505050565b60006125d7828461228c565b915081905092915050565b60006020820190506125f760008301846121cb565b92915050565b600060808201905061261260008301876121cb565b61261f60208301866121cb565b61262c6040830185612581565b818103606083015261263e81846121e9565b905095945050505050565b600060208201905061265e60008301846121da565b92915050565b6000602082019050818103600083015261267e8184612222565b905092915050565b6000602082019050818103600083015261269f8161230b565b9050919050565b600060208201905081810360008301526126bf8161232e565b9050919050565b600060208201905081810360008301526126df81612351565b9050919050565b600060208201905081810360008301526126ff81612374565b9050919050565b6000602082019050818103600083015261271f81612397565b9050919050565b6000602082019050818103600083015261273f816123ba565b9050919050565b6000602082019050818103600083015261275f816123dd565b9050919050565b6000602082019050818103600083015261277f81612400565b9050919050565b6000602082019050818103600083015261279f81612423565b9050919050565b600060208201905081810360008301526127bf81612446565b9050919050565b600060208201905081810360008301526127df81612469565b9050919050565b600060208201905081810360008301526127ff8161248c565b9050919050565b6000602082019050818103600083015261281f816124af565b9050919050565b6000602082019050818103600083015261283f816124d2565b9050919050565b6000602082019050818103600083015261285f816124f5565b9050919050565b6000602082019050818103600083015261287f81612518565b9050919050565b6000602082019050818103600083015261289f8161253b565b9050919050565b600060208201905081810360008301526128bf8161255e565b9050919050565b60006020820190506128db6000830184612581565b92915050565b60006128eb6128fc565b90506128f78282612b63565b919050565b6000604051905090565b600067ffffffffffffffff82111561292157612920612cca565b5b61292a82612d0d565b9050602081019050919050565b600067ffffffffffffffff82111561295257612951612cca565b5b61295b82612d0d565b9050602081019050919050565b60008190508160005260206000209050919050565b600081519050919050565b600081519050919050565b600082825260208201905092915050565b600082825260208201905092915050565b600081905092915050565b60006129cb82612ae5565b91506129d683612ae5565b9250827fffffffffffffffffffffffffffffffffffffffffffffffffffffffffffffffff03821115612a0b57612a0a612c0e565b5b828201905092915050565b6000612a2182612ae5565b9150612a2c83612ae5565b925082612a3c57612a3b612c3d565b5b828204905092915050565b6000612a5282612ae5565b9150612a5d83612ae5565b925082821015612a7057612a6f612c0e565b5b828203905092915050565b6000612a8682612ac5565b9050919050565b60008115159050919050565b60007fffffffff0000000000000000000000000000000000000000000000000000000082169050919050565b600073ffffffffffffffffffffffffffffffffffffffff82169050919050565b6000819050919050565b82818337600083830152505050565b60005b83811015612b1c578082015181840152602081019050612b01565b83811115612b2b576000848401525b50505050565b60006002820490506001821680612b4957607f821691505b60208210811415612b5d57612b5c612c6c565b5b50919050565b612b6c82612d0d565b810181811067ffffffffffffffff82111715612b8b57612b8a612cca565b5b80604052505050565b6000612b9f82612ae5565b91507fffffffffffffffffffffffffffffffffffffffffffffffffffffffffffffffff821415612bd257612bd1612c0e565b5b600182019050919050565b6000612be882612ae5565b9150612bf383612ae5565b925082612c0357612c02612c3d565b5b828206905092915050565b7f4e487b7100000000000000000000000000000000000000000000000000000000600052601160045260246000fd5b7f4e487b7100000000000000000000000000000000000000000000000000000000600052601260045260246000fd5b7f4e487b7100000000000000000000000000000000000000000000000000000000600052602260045260246000fd5b7f4e487b7100000000000000000000000000000000000000000000000000000000600052603260045260246000fd5b7f4e487b7100000000000000000000000000000000000000000000000000000000600052604160045260246000fd5b600080fd5b600080fd5b600080fd5b600080fd5b6000601f19601f8301169050919050565b7f4552433732313a207472616e7366657220746f206e6f6e20455243373231526560008201527f63656976657220696d706c656d656e7465720000000000000000000000000000602082015250565b7f4552433732313a207472616e736665722066726f6d20696e636f72726563742060008201527f6f776e6572000000000000000000000000000000000000000000000000000000602082015250565b7f4552433732313a20746f6b656e20616c7265616479206d696e74656400000000600082015250565b7f4552433732313a207472616e7366657220746f20746865207a65726f2061646460008201527f7265737300000000000000000000000000000000000000000000000000000000602082015250565b7f4552433732313a20617070726f766520746f2063616c6c657200000000000000600082015250565b7f4552433732313a206f70657261746f7220717565727920666f72206e6f6e657860008201527f697374656e7420746f6b656e0000000000000000000000000000000000000000602082015250565b7f4552433732313a20617070726f76652063616c6c6572206973206e6f74206f7760008201527f6e6572206e6f7220617070726f76656420666f7220616c6c0000000000000000602082015250565b7f4552433732313a2062616c616e636520717565727920666f7220746865207a6560008201527f726f206164647265737300000000000000000000000000000000000000000000602082015250565b7f4552433732313a206f776e657220717565727920666f72206e6f6e657869737460008201527f656e7420746f6b656e0000000000000000000000000000000000000000000000602082015250565b7f45524337323155524953746f726167653a2055524920736574206f66206e6f6e60008201527f6578697374656e7420746f6b656e000000000000000000000000000000000000602082015250565b7f4552433732313a206d696e7420746f20746865207a65726f2061646472657373600082015250565b7f45524337323155524953746f726167653a2055524920717565727920666f722060008201527f6e6f6e6578697374656e7420746f6b656e000000000000000000000000000000602082015250565b7f4552433732313a20617070726f76656420717565727920666f72206e6f6e657860008201527f697374656e7420746f6b656e0000000000000000000000000000000000000000602082015250565b7f4552433732314d657461646174613a2055524920717565727920666f72206e6f60008201527f6e6578697374656e7420746f6b656e0000000000000000000000000000000000602082015250565b7f4552433732313a20617070726f76616c20746f2063757272656e74206f776e6560008201527f7200000000000000000000000000000000000000000000000000000000000000602082015250565b7f546865726520697320616c7265616479206120617070206f662074686520736160008201527f6d6520746f6b656e555249000000000000000000000000000000000000000000602082015250565b7f4552433732313a207472616e736665722063616c6c6572206973206e6f74206f60008201527f776e6572206e6f7220617070726f766564000000000000000000000000000000602082015250565b7f546865726520697320616c7265616479206120617070206f662074686520736160008201527f6d65206e616d6500000000000000000000000000000000000000000000000000602082015250565b61324381612a7b565b811461324e57600080fd5b50565b61325a81612a8d565b811461326557600080fd5b50565b61327181612a99565b811461327c57600080fd5b50565b61328881612ae5565b811461329357600080fd5b5056fea264697066735822122015706aa2b2fae6751e36a69fa585e4d43dd58764ba6b6d91ff62df2793fbab7964736f6c63430008050033",
  "immutableReferences": {},
  "source": "// contracts/AppNTF.sol\n// SPDX-License-Identifier: MIT\npragma solidity ^0.8.4;\n\nimport \"@openzeppelin/contracts/token/ERC721/extensions/ERC721URIStorage.sol\";\nimport \"@openzeppelin/contracts/utils/Counters.sol\";\n\ncontract AppNFT is ERC721URIStorage {\n    using Counters for Counters.Counter;\n    Counters.Counter private _tokenIds;\n\n    mapping(uint256 => string) public _appNameMap;\n\n    constructor() ERC721(\"BitForest\", \"BFT\") {}\n\n    function add(address sender, string memory tokenURI, string memory name) public returns (uint256) {\n        uint256 newItemId = _tokenIds.current();\n\n        bool hasSameName = false;\n        bool hasSameTokenURI = false;\n        for (uint i = 0; i < newItemId; i++) {\n            if (keccak256(abi.encodePacked(_appNameMap[i])) == keccak256(abi.encodePacked(name))) {\n                hasSameName = true;\n                break;\n            }\n            if (_exists(i) && keccak256(abi.encodePacked(this.tokenURI(i))) == keccak256(abi.encodePacked(tokenURI))) {\n                hasSameTokenURI = true;\n                break;    \n            }\n        }\n\n        require(!hasSameName, \"There is already a app of the same name\");\n        require(!hasSameTokenURI, \"There is already a app of the same tokenURI\");\n\n        _mint(sender, newItemId);\n        _setTokenURI(newItemId, tokenURI);\n        _appNameMap[newItemId] = name;\n\n        _tokenIds.increment();\n        return newItemId;\n    }\n\n    function currentCount() public view returns (uint256) {\n        return _tokenIds.current();\n    }\n\n    function getName(uint256 tokenId) public view returns (string memory) {\n        return _appNameMap[tokenId];\n    }\n}\n",
  "sourcePath": "/Users/guzhihao/Documents/code/web3/dapp/boilerplate/contracts/AppNFT.sol",
  "compiler": {
    "name": "solc",
    "version": "0.8.5+commit.a4f2e591.Emscripten.clang"
  },
  "schemaVersion": "3.4.7",
  "updatedAt": "2022-06-15T09:19:33.857Z",
  "networkType": "ethereum",
  "devdoc": {
    "kind": "dev",
    "methods": {
      "approve(address,uint256)": {
        "details": "See {IERC721-approve}."
      },
      "balanceOf(address)": {
        "details": "See {IERC721-balanceOf}."
      },
      "getApproved(uint256)": {
        "details": "See {IERC721-getApproved}."
      },
      "isApprovedForAll(address,address)": {
        "details": "See {IERC721-isApprovedForAll}."
      },
      "name()": {
        "details": "See {IERC721Metadata-name}."
      },
      "ownerOf(uint256)": {
        "details": "See {IERC721-ownerOf}."
      },
      "safeTransferFrom(address,address,uint256)": {
        "details": "See {IERC721-safeTransferFrom}."
      },
      "safeTransferFrom(address,address,uint256,bytes)": {
        "details": "See {IERC721-safeTransferFrom}."
      },
      "setApprovalForAll(address,bool)": {
        "details": "See {IERC721-setApprovalForAll}."
      },
      "supportsInterface(bytes4)": {
        "details": "See {IERC165-supportsInterface}."
      },
      "symbol()": {
        "details": "See {IERC721Metadata-symbol}."
      },
      "tokenURI(uint256)": {
        "details": "See {IERC721Metadata-tokenURI}."
      },
      "transferFrom(address,address,uint256)": {
        "details": "See {IERC721-transferFrom}."
      }
    },
    "version": 1
  },
  "userdoc": {
    "kind": "user",
    "methods": {},
    "version": 1
  }
}