{
  "contractName": "AppStore",
  "abi": [
    {
      "inputs": [],
      "stateMutability": "nonpayable",
      "type": "constructor"
    },
    {
      "anonymous": false,
      "inputs": [
        {
          "indexed": false,
          "internalType": "address",
          "name": "buyer",
          "type": "address"
        },
        {
          "indexed": false,
          "internalType": "address",
          "name": "seller",
          "type": "address"
        },
        {
          "indexed": false,
          "internalType": "uint256",
          "name": "tokenId",
          "type": "uint256"
        },
        {
          "indexed": false,
          "internalType": "uint256",
          "name": "amount",
          "type": "uint256"
        }
      ],
      "name": "OnBuy",
      "type": "event"
    },
    {
      "anonymous": false,
      "inputs": [
        {
          "indexed": false,
          "internalType": "address",
          "name": "seller",
          "type": "address"
        },
        {
          "indexed": false,
          "internalType": "uint256",
          "name": "tokenId",
          "type": "uint256"
        },
        {
          "indexed": false,
          "internalType": "uint256",
          "name": "amount",
          "type": "uint256"
        }
      ],
      "name": "OnSell",
      "type": "event"
    },
    {
      "anonymous": false,
      "inputs": [
        {
          "indexed": false,
          "internalType": "bool",
          "name": "verified",
          "type": "bool"
        },
        {
          "indexed": false,
          "internalType": "uint256",
          "name": "tokenId",
          "type": "uint256"
        }
      ],
      "name": "OnVerify",
      "type": "event"
    },
    {
      "stateMutability": "nonpayable",
      "type": "fallback"
    },
    {
      "inputs": [
        {
          "internalType": "uint256",
          "name": "",
          "type": "uint256"
        }
      ],
      "name": "appMap",
      "outputs": [
        {
          "internalType": "uint256",
          "name": "price",
          "type": "uint256"
        },
        {
          "internalType": "address payable",
          "name": "seller",
          "type": "address"
        }
      ],
      "stateMutability": "view",
      "type": "function",
      "constant": true
    },
    {
      "inputs": [],
      "name": "appNTF",
      "outputs": [
        {
          "internalType": "contract AppNFT",
          "name": "",
          "type": "address"
        }
      ],
      "stateMutability": "view",
      "type": "function",
      "constant": true
    },
    {
      "inputs": [],
      "name": "totalCount",
      "outputs": [
        {
          "internalType": "uint256",
          "name": "",
          "type": "uint256"
        }
      ],
      "stateMutability": "view",
      "type": "function",
      "constant": true
    },
    {
      "inputs": [
        {
          "internalType": "uint256",
          "name": "tokenId",
          "type": "uint256"
        }
      ],
      "name": "getTokenURI",
      "outputs": [
        {
          "internalType": "string",
          "name": "",
          "type": "string"
        }
      ],
      "stateMutability": "view",
      "type": "function",
      "constant": true
    },
    {
      "inputs": [
        {
          "internalType": "uint256",
          "name": "amount",
          "type": "uint256"
        },
        {
          "internalType": "string",
          "name": "tokenURI",
          "type": "string"
        }
      ],
      "name": "sell",
      "outputs": [
        {
          "internalType": "uint256",
          "name": "",
          "type": "uint256"
        }
      ],
      "stateMutability": "nonpayable",
      "type": "function"
    },
    {
      "inputs": [
        {
          "internalType": "uint256",
          "name": "tokenId",
          "type": "uint256"
        }
      ],
      "name": "buy",
      "outputs": [
        {
          "internalType": "bool",
          "name": "",
          "type": "bool"
        }
      ],
      "stateMutability": "payable",
      "type": "function",
      "payable": true
    },
    {
      "inputs": [
        {
          "internalType": "uint256",
          "name": "tokenId",
          "type": "uint256"
        }
      ],
      "name": "verify",
      "outputs": [
        {
          "internalType": "bool",
          "name": "",
          "type": "bool"
        }
      ],
      "stateMutability": "nonpayable",
      "type": "function"
    }
  ],
  "bytecode": "0x608060405234801561001057600080fd5b5060405161001d9061007e565b604051809103906000f080158015610039573d6000803e3d6000fd5b506000806101000a81548173ffffffffffffffffffffffffffffffffffffffff021916908373ffffffffffffffffffffffffffffffffffffffff16021790555061008b565b612de7806111d283390190565b6111388061009a6000396000f3fe6080604052600436106100745760003560e01c80638753367f1161004e5780638753367f1461012d57806389f1bd3f1461016a578063bace3b59146101a7578063d96a094a146101d257610075565b80631724e2ed1461008757806334eafb11146100c55780633bb3a24d146100f057610075565b5b34801561008157600080fd5b50600080fd5b34801561009357600080fd5b506100ae60048036038101906100a99190610a8e565b610202565b6040516100bc929190610de8565b60405180910390f35b3480156100d157600080fd5b506100da610246565b6040516100e79190610dcd565b60405180910390f35b3480156100fc57600080fd5b5061011760048036038101906101129190610a8e565b6102ec565b6040516101249190610d4b565b60405180910390f35b34801561013957600080fd5b50610154600480360381019061014f9190610a8e565b6103a3565b6040516101619190610cec565b60405180910390f35b34801561017657600080fd5b50610191600480360381019061018c9190610ae8565b6104f8565b60405161019e9190610dcd565b60405180910390f35b3480156101b357600080fd5b506101bc61065f565b6040516101c99190610d30565b60405180910390f35b6101ec60048036038101906101e79190610a8e565b610683565b6040516101f99190610cec565b60405180910390f35b60016020528060005260406000206000915090508060000154908060010160009054906101000a900473ffffffffffffffffffffffffffffffffffffffff16905082565b60008060009054906101000a900473ffffffffffffffffffffffffffffffffffffffff1673ffffffffffffffffffffffffffffffffffffffff1663c732d2016040518163ffffffff1660e01b815260040160206040518083038186803b1580156102af57600080fd5b505afa1580156102c3573d6000803e3d6000fd5b505050506040513d601f19601f820116820180604052508101906102e79190610abb565b905090565b606060008054906101000a900473ffffffffffffffffffffffffffffffffffffffff1673ffffffffffffffffffffffffffffffffffffffff1663c87b56dd836040518263ffffffff1660e01b81526004016103479190610dcd565b60006040518083038186803b15801561035f57600080fd5b505afa158015610373573d6000803e3d6000fd5b505050506040513d6000823e3d601f19601f8201168201806040525081019061039c9190610a45565b9050919050565b60008073ffffffffffffffffffffffffffffffffffffffff166001600084815260200190815260200160002060010160009054906101000a900473ffffffffffffffffffffffffffffffffffffffff1673ffffffffffffffffffffffffffffffffffffffff16141561044a576040517f08c379a000000000000000000000000000000000000000000000000000000000815260040161044190610dad565b60405180910390fd5b6000600115156001600085815260200190815260200160002060020160003373ffffffffffffffffffffffffffffffffffffffff1673ffffffffffffffffffffffffffffffffffffffff16815260200190815260200160002060009054906101000a900460ff1615151490507feb2cda247675fdbac1a4b78869ab5d831609a6ce2443bc9d91820b93bd11604581846040516104e7929190610d07565b60405180910390a180915050919050565b60008060008054906101000a900473ffffffffffffffffffffffffffffffffffffffff1673ffffffffffffffffffffffffffffffffffffffff166336d6da5533856040518363ffffffff1660e01b8152600401610556929190610c85565b602060405180830381600087803b15801561057057600080fd5b505af1158015610584573d6000803e3d6000fd5b505050506040513d601f19601f820116820180604052508101906105a89190610abb565b9050336001600083815260200190815260200160002060010160006101000a81548173ffffffffffffffffffffffffffffffffffffffff021916908373ffffffffffffffffffffffffffffffffffffffff1602179055508360016000838152602001908152602001600020600001819055507f26787c8671412319a484ce56f5606f739f3d415e9c4930cd0603b1c1badc204233828660405161064d93929190610cb5565b60405180910390a18091505092915050565b60008054906101000a900473ffffffffffffffffffffffffffffffffffffffff1681565b600080600160008481526020019081526020016000209050600073ffffffffffffffffffffffffffffffffffffffff168160010160009054906101000a900473ffffffffffffffffffffffffffffffffffffffff1673ffffffffffffffffffffffffffffffffffffffff16141561072f576040517f08c379a000000000000000000000000000000000000000000000000000000000815260040161072690610dad565b60405180910390fd5b34816000015414610775576040517f08c379a000000000000000000000000000000000000000000000000000000000815260040161076c90610d6d565b60405180910390fd5b600115158160020160003373ffffffffffffffffffffffffffffffffffffffff1673ffffffffffffffffffffffffffffffffffffffff16815260200190815260200160002060009054906101000a900460ff161515141561080b576040517f08c379a000000000000000000000000000000000000000000000000000000000815260040161080290610d8d565b60405180910390fd5b8060010160009054906101000a900473ffffffffffffffffffffffffffffffffffffffff1673ffffffffffffffffffffffffffffffffffffffff166108fc349081150290604051600060405180830381858888f19350505050158015610875573d6000803e3d6000fd5b5060018160020160003373ffffffffffffffffffffffffffffffffffffffff1673ffffffffffffffffffffffffffffffffffffffff16815260200190815260200160002060006101000a81548160ff0219169083151502179055507fd2f51e9c4ab03ebb68f3e4fead0ef8727dbac100e78d1321ad0a2c247965df53338260010160009054906101000a900473ffffffffffffffffffffffffffffffffffffffff1685346040516109299493929190610c40565b60405180910390a16001915050919050565b600061094e61094984610e36565b610e11565b90508281526020810184848401111561096a57610969610fde565b5b610975848285610f37565b509392505050565b600061099061098b84610e36565b610e11565b9050828152602081018484840111156109ac576109ab610fde565b5b6109b7848285610f46565b509392505050565b600082601f8301126109d4576109d3610fd9565b5b81356109e484826020860161093b565b91505092915050565b600082601f830112610a0257610a01610fd9565b5b8151610a1284826020860161097d565b91505092915050565b600081359050610a2a816110eb565b92915050565b600081519050610a3f816110eb565b92915050565b600060208284031215610a5b57610a5a610fe8565b5b600082015167ffffffffffffffff811115610a7957610a78610fe3565b5b610a85848285016109ed565b91505092915050565b600060208284031215610aa457610aa3610fe8565b5b6000610ab284828501610a1b565b91505092915050565b600060208284031215610ad157610ad0610fe8565b5b6000610adf84828501610a30565b91505092915050565b60008060408385031215610aff57610afe610fe8565b5b6000610b0d85828601610a1b565b925050602083013567ffffffffffffffff811115610b2e57610b2d610fe3565b5b610b3a858286016109bf565b9150509250929050565b610b4d81610edd565b82525050565b610b5c81610e95565b82525050565b610b6b81610e83565b82525050565b610b7a81610ea7565b82525050565b610b8981610eef565b82525050565b6000610b9a82610e67565b610ba48185610e72565b9350610bb4818560208601610f46565b610bbd81610fed565b840191505092915050565b6000610bd5603383610e72565b9150610be082610ffe565b604082019050919050565b6000610bf8602683610e72565b9150610c038261104d565b604082019050919050565b6000610c1b603183610e72565b9150610c268261109c565b604082019050919050565b610c3a81610ed3565b82525050565b6000608082019050610c556000830187610b62565b610c626020830186610b44565b610c6f6040830185610c31565b610c7c6060830184610c31565b95945050505050565b6000604082019050610c9a6000830185610b62565b8181036020830152610cac8184610b8f565b90509392505050565b6000606082019050610cca6000830186610b62565b610cd76020830185610c31565b610ce46040830184610c31565b949350505050565b6000602082019050610d016000830184610b71565b92915050565b6000604082019050610d1c6000830185610b71565b610d296020830184610c31565b9392505050565b6000602082019050610d456000830184610b80565b92915050565b60006020820190508181036000830152610d658184610b8f565b905092915050565b60006020820190508181036000830152610d8681610bc8565b9050919050565b60006020820190508181036000830152610da681610beb565b9050919050565b60006020820190508181036000830152610dc681610c0e565b9050919050565b6000602082019050610de26000830184610c31565b92915050565b6000604082019050610dfd6000830185610c31565b610e0a6020830184610b53565b9392505050565b6000610e1b610e2c565b9050610e278282610f79565b919050565b6000604051905090565b600067ffffffffffffffff821115610e5157610e50610faa565b5b610e5a82610fed565b9050602081019050919050565b600081519050919050565b600082825260208201905092915050565b6000610e8e82610eb3565b9050919050565b6000610ea082610eb3565b9050919050565b60008115159050919050565b600073ffffffffffffffffffffffffffffffffffffffff82169050919050565b6000819050919050565b6000610ee882610f13565b9050919050565b6000610efa82610f01565b9050919050565b6000610f0c82610eb3565b9050919050565b6000610f1e82610f25565b9050919050565b6000610f3082610eb3565b9050919050565b82818337600083830152505050565b60005b83811015610f64578082015181840152602081019050610f49565b83811115610f73576000848401525b50505050565b610f8282610fed565b810181811067ffffffffffffffff82111715610fa157610fa0610faa565b5b80604052505050565b7f4e487b7100000000000000000000000000000000000000000000000000000000600052604160045260246000fd5b600080fd5b600080fd5b600080fd5b600080fd5b6000601f19601f8301169050919050565b7f4572726f723a2054686520707572636861736520707269636520666f7220746860008201527f69732061707020697320696e636f727265637400000000000000000000000000602082015250565b7f4572726f723a205468697320757365722068617320616c72656164792070757260008201527f6368617365640000000000000000000000000000000000000000000000000000602082015250565b7f4572726f723a205468657265206973206e6f2061707020706f696e746564207460008201527f6f206279207468697320746f6b656e4964000000000000000000000000000000602082015250565b6110f481610ed3565b81146110ff57600080fd5b5056fea26469706673582212204c37f3fa2ddad8bf031b2f16cbe8e0598de0c1198f7dc912f8f17047337e7db164736f6c6343000805003360806040523480156200001157600080fd5b506040518060400160405280600981526020017f426974466f7265737400000000000000000000000000000000000000000000008152506040518060400160405280600381526020017f4246540000000000000000000000000000000000000000000000000000000000815250816000908051906020019062000096929190620000b8565b508060019080519060200190620000af929190620000b8565b505050620001cd565b828054620000c69062000168565b90600052602060002090601f016020900481019282620000ea576000855562000136565b82601f106200010557805160ff191683800117855562000136565b8280016001018555821562000136579182015b828111156200013557825182559160200191906001019062000118565b5b50905062000145919062000149565b5090565b5b80821115620001645760008160009055506001016200014a565b5090565b600060028204905060018216806200018157607f821691505b602082108114156200019857620001976200019e565b5b50919050565b7f4e487b7100000000000000000000000000000000000000000000000000000000600052602260045260246000fd5b612c0a80620001dd6000396000f3fe608060405234801561001057600080fd5b50600436106100f55760003560e01c80636352211e11610097578063b88d4fde11610066578063b88d4fde14610296578063c732d201146102b2578063c87b56dd146102d0578063e985e9c514610300576100f5565b80636352211e146101fc57806370a082311461022c57806395d89b411461025c578063a22cb4651461027a576100f5565b8063095ea7b3116100d3578063095ea7b31461017857806323b872dd1461019457806336d6da55146101b057806342842e0e146101e0576100f5565b806301ffc9a7146100fa57806306fdde031461012a578063081812fc14610148575b600080fd5b610114600480360381019061010f9190611c68565b610330565b604051610121919061207a565b60405180910390f35b610132610412565b60405161013f9190612095565b60405180910390f35b610162600480360381019061015d9190611cc2565b6104a4565b60405161016f9190612013565b60405180910390f35b610192600480360381019061018d9190611c28565b610529565b005b6101ae60048036038101906101a99190611ab6565b610641565b005b6101ca60048036038101906101c59190611bcc565b6106a1565b6040516101d791906122b7565b60405180910390f35b6101fa60048036038101906101f59190611ab6565b6106d8565b005b61021660048036038101906102119190611cc2565b6106f8565b6040516102239190612013565b60405180910390f35b61024660048036038101906102419190611a49565b6107aa565b60405161025391906122b7565b60405180910390f35b610264610862565b6040516102719190612095565b60405180910390f35b610294600480360381019061028f9190611b8c565b6108f4565b005b6102b060048036038101906102ab9190611b09565b61090a565b005b6102ba61096c565b6040516102c791906122b7565b60405180910390f35b6102ea60048036038101906102e59190611cc2565b61097d565b6040516102f79190612095565b60405180910390f35b61031a60048036038101906103159190611a76565b610acf565b604051610327919061207a565b60405180910390f35b60007f80ac58cd000000000000000000000000000000000000000000000000000000007bffffffffffffffffffffffffffffffffffffffffffffffffffffffff1916827bffffffffffffffffffffffffffffffffffffffffffffffffffffffff191614806103fb57507f5b5e139f000000000000000000000000000000000000000000000000000000007bffffffffffffffffffffffffffffffffffffffffffffffffffffffff1916827bffffffffffffffffffffffffffffffffffffffffffffffffffffffff1916145b8061040b575061040a82610b63565b5b9050919050565b6060600080546104219061250d565b80601f016020809104026020016040519081016040528092919081815260200182805461044d9061250d565b801561049a5780601f1061046f5761010080835404028352916020019161049a565b820191906000526020600020905b81548152906001019060200180831161047d57829003601f168201915b5050505050905090565b60006104af82610bcd565b6104ee576040517f08c379a00000000000000000000000000000000000000000000000000000000081526004016104e590612237565b60405180910390fd5b6004600083815260200190815260200160002060009054906101000a900473ffffffffffffffffffffffffffffffffffffffff169050919050565b6000610534826106f8565b90508073ffffffffffffffffffffffffffffffffffffffff168373ffffffffffffffffffffffffffffffffffffffff1614156105a5576040517f08c379a000000000000000000000000000000000000000000000000000000000815260040161059c90612277565b60405180910390fd5b8073ffffffffffffffffffffffffffffffffffffffff166105c4610c39565b73ffffffffffffffffffffffffffffffffffffffff1614806105f357506105f2816105ed610c39565b610acf565b5b610632576040517f08c379a000000000000000000000000000000000000000000000000000000000815260040161062990612177565b60405180910390fd5b61063c8383610c41565b505050565b61065261064c610c39565b82610cfa565b610691576040517f08c379a000000000000000000000000000000000000000000000000000000000815260040161068890612297565b60405180910390fd5b61069c838383610dd8565b505050565b6000806106ae600761103f565b90506106ba848261104d565b6106c48184611227565b6106ce600761129b565b8091505092915050565b6106f38383836040518060200160405280600081525061090a565b505050565b6000806002600084815260200190815260200160002060009054906101000a900473ffffffffffffffffffffffffffffffffffffffff169050600073ffffffffffffffffffffffffffffffffffffffff168173ffffffffffffffffffffffffffffffffffffffff1614156107a1576040517f08c379a0000000000000000000000000000000000000000000000000000000008152600401610798906121b7565b60405180910390fd5b80915050919050565b60008073ffffffffffffffffffffffffffffffffffffffff168273ffffffffffffffffffffffffffffffffffffffff16141561081b576040517f08c379a000000000000000000000000000000000000000000000000000000000815260040161081290612197565b60405180910390fd5b600360008373ffffffffffffffffffffffffffffffffffffffff1673ffffffffffffffffffffffffffffffffffffffff168152602001908152602001600020549050919050565b6060600180546108719061250d565b80601f016020809104026020016040519081016040528092919081815260200182805461089d9061250d565b80156108ea5780601f106108bf576101008083540402835291602001916108ea565b820191906000526020600020905b8154815290600101906020018083116108cd57829003601f168201915b5050505050905090565b6109066108ff610c39565b83836112b1565b5050565b61091b610915610c39565b83610cfa565b61095a576040517f08c379a000000000000000000000000000000000000000000000000000000000815260040161095190612297565b60405180910390fd5b6109668484848461141e565b50505050565b6000610978600761103f565b905090565b606061098882610bcd565b6109c7576040517f08c379a00000000000000000000000000000000000000000000000000000000081526004016109be90612217565b60405180910390fd5b60006006600084815260200190815260200160002080546109e79061250d565b80601f0160208091040260200160405190810160405280929190818152602001828054610a139061250d565b8015610a605780601f10610a3557610100808354040283529160200191610a60565b820191906000526020600020905b815481529060010190602001808311610a4357829003601f168201915b505050505090506000610a7161147a565b9050600081511415610a87578192505050610aca565b600082511115610abc578082604051602001610aa4929190611fef565b60405160208183030381529060405292505050610aca565b610ac584611491565b925050505b919050565b6000600560008473ffffffffffffffffffffffffffffffffffffffff1673ffffffffffffffffffffffffffffffffffffffff16815260200190815260200160002060008373ffffffffffffffffffffffffffffffffffffffff1673ffffffffffffffffffffffffffffffffffffffff16815260200190815260200160002060009054906101000a900460ff16905092915050565b60007f01ffc9a7000000000000000000000000000000000000000000000000000000007bffffffffffffffffffffffffffffffffffffffffffffffffffffffff1916827bffffffffffffffffffffffffffffffffffffffffffffffffffffffff1916149050919050565b60008073ffffffffffffffffffffffffffffffffffffffff166002600084815260200190815260200160002060009054906101000a900473ffffffffffffffffffffffffffffffffffffffff1673ffffffffffffffffffffffffffffffffffffffff1614159050919050565b600033905090565b816004600083815260200190815260200160002060006101000a81548173ffffffffffffffffffffffffffffffffffffffff021916908373ffffffffffffffffffffffffffffffffffffffff160217905550808273ffffffffffffffffffffffffffffffffffffffff16610cb4836106f8565b73ffffffffffffffffffffffffffffffffffffffff167f8c5be1e5ebec7d5bd14f71427d1e84f3dd0314c0f7b2291e5b200ac8c7c3b92560405160405180910390a45050565b6000610d0582610bcd565b610d44576040517f08c379a0000000000000000000000000000000000000000000000000000000008152600401610d3b90612157565b60405180910390fd5b6000610d4f836106f8565b90508073ffffffffffffffffffffffffffffffffffffffff168473ffffffffffffffffffffffffffffffffffffffff161480610d915750610d908185610acf565b5b80610dcf57508373ffffffffffffffffffffffffffffffffffffffff16610db7846104a4565b73ffffffffffffffffffffffffffffffffffffffff16145b91505092915050565b8273ffffffffffffffffffffffffffffffffffffffff16610df8826106f8565b73ffffffffffffffffffffffffffffffffffffffff1614610e4e576040517f08c379a0000000000000000000000000000000000000000000000000000000008152600401610e45906120d7565b60405180910390fd5b600073ffffffffffffffffffffffffffffffffffffffff168273ffffffffffffffffffffffffffffffffffffffff161415610ebe576040517f08c379a0000000000000000000000000000000000000000000000000000000008152600401610eb590612117565b60405180910390fd5b610ec9838383611538565b610ed4600082610c41565b6001600360008573ffffffffffffffffffffffffffffffffffffffff1673ffffffffffffffffffffffffffffffffffffffff1681526020019081526020016000206000828254610f249190612423565b925050819055506001600360008473ffffffffffffffffffffffffffffffffffffffff1673ffffffffffffffffffffffffffffffffffffffff1681526020019081526020016000206000828254610f7b919061239c565b92505081905550816002600083815260200190815260200160002060006101000a81548173ffffffffffffffffffffffffffffffffffffffff021916908373ffffffffffffffffffffffffffffffffffffffff160217905550808273ffffffffffffffffffffffffffffffffffffffff168473ffffffffffffffffffffffffffffffffffffffff167fddf252ad1be2c89b69c2b068fc378daa952ba7f163c4a11628f55a4df523b3ef60405160405180910390a461103a83838361153d565b505050565b600081600001549050919050565b600073ffffffffffffffffffffffffffffffffffffffff168273ffffffffffffffffffffffffffffffffffffffff1614156110bd576040517f08c379a00000000000000000000000000000000000000000000000000000000081526004016110b4906121f7565b60405180910390fd5b6110c681610bcd565b15611106576040517f08c379a00000000000000000000000000000000000000000000000000000000081526004016110fd906120f7565b60405180910390fd5b61111260008383611538565b6001600360008473ffffffffffffffffffffffffffffffffffffffff1673ffffffffffffffffffffffffffffffffffffffff1681526020019081526020016000206000828254611162919061239c565b92505081905550816002600083815260200190815260200160002060006101000a81548173ffffffffffffffffffffffffffffffffffffffff021916908373ffffffffffffffffffffffffffffffffffffffff160217905550808273ffffffffffffffffffffffffffffffffffffffff16600073ffffffffffffffffffffffffffffffffffffffff167fddf252ad1be2c89b69c2b068fc378daa952ba7f163c4a11628f55a4df523b3ef60405160405180910390a46112236000838361153d565b5050565b61123082610bcd565b61126f576040517f08c379a0000000000000000000000000000000000000000000000000000000008152600401611266906121d7565b60405180910390fd5b8060066000848152602001908152602001600020908051906020019061129692919061185d565b505050565b6001816000016000828254019250508190555050565b8173ffffffffffffffffffffffffffffffffffffffff168373ffffffffffffffffffffffffffffffffffffffff161415611320576040517f08c379a000000000000000000000000000000000000000000000000000000000815260040161131790612137565b60405180910390fd5b80600560008573ffffffffffffffffffffffffffffffffffffffff1673ffffffffffffffffffffffffffffffffffffffff16815260200190815260200160002060008473ffffffffffffffffffffffffffffffffffffffff1673ffffffffffffffffffffffffffffffffffffffff16815260200190815260200160002060006101000a81548160ff0219169083151502179055508173ffffffffffffffffffffffffffffffffffffffff168373ffffffffffffffffffffffffffffffffffffffff167f17307eab39ab6107e8899845ad3d59bd9653f200f220920489ca2b5937696c3183604051611411919061207a565b60405180910390a3505050565b611429848484610dd8565b61143584848484611542565b611474576040517f08c379a000000000000000000000000000000000000000000000000000000000815260040161146b906120b7565b60405180910390fd5b50505050565b606060405180602001604052806000815250905090565b606061149c82610bcd565b6114db576040517f08c379a00000000000000000000000000000000000000000000000000000000081526004016114d290612257565b60405180910390fd5b60006114e561147a565b905060008151116115055760405180602001604052806000815250611530565b8061150f846116d9565b604051602001611520929190611fef565b6040516020818303038152906040525b915050919050565b505050565b505050565b60006115638473ffffffffffffffffffffffffffffffffffffffff1661183a565b156116cc578373ffffffffffffffffffffffffffffffffffffffff1663150b7a0261158c610c39565b8786866040518563ffffffff1660e01b81526004016115ae949392919061202e565b602060405180830381600087803b1580156115c857600080fd5b505af19250505080156115f957506040513d601f19601f820116820180604052508101906115f69190611c95565b60015b61167c573d8060008114611629576040519150601f19603f3d011682016040523d82523d6000602084013e61162e565b606091505b50600081511415611674576040517f08c379a000000000000000000000000000000000000000000000000000000000815260040161166b906120b7565b60405180910390fd5b805181602001fd5b63150b7a0260e01b7bffffffffffffffffffffffffffffffffffffffffffffffffffffffff1916817bffffffffffffffffffffffffffffffffffffffffffffffffffffffff1916149150506116d1565b600190505b949350505050565b60606000821415611721576040518060400160405280600181526020017f30000000000000000000000000000000000000000000000000000000000000008152509050611835565b600082905060005b6000821461175357808061173c90612570565b915050600a8261174c91906123f2565b9150611729565b60008167ffffffffffffffff81111561176f5761176e6126a6565b5b6040519080825280601f01601f1916602001820160405280156117a15781602001600182028036833780820191505090505b5090505b6000851461182e576001826117ba9190612423565b9150600a856117c991906125b9565b60306117d5919061239c565b60f81b8183815181106117eb576117ea612677565b5b60200101907effffffffffffffffffffffffffffffffffffffffffffffffffffffffffffff1916908160001a905350600a8561182791906123f2565b94506117a5565b8093505050505b919050565b6000808273ffffffffffffffffffffffffffffffffffffffff163b119050919050565b8280546118699061250d565b90600052602060002090601f01602090048101928261188b57600085556118d2565b82601f106118a457805160ff19168380011785556118d2565b828001600101855582156118d2579182015b828111156118d15782518255916020019190600101906118b6565b5b5090506118df91906118e3565b5090565b5b808211156118fc5760008160009055506001016118e4565b5090565b600061191361190e846122f7565b6122d2565b90508281526020810184848401111561192f5761192e6126da565b5b61193a8482856124cb565b509392505050565b600061195561195084612328565b6122d2565b905082815260208101848484011115611971576119706126da565b5b61197c8482856124cb565b509392505050565b60008135905061199381612b78565b92915050565b6000813590506119a881612b8f565b92915050565b6000813590506119bd81612ba6565b92915050565b6000815190506119d281612ba6565b92915050565b600082601f8301126119ed576119ec6126d5565b5b81356119fd848260208601611900565b91505092915050565b600082601f830112611a1b57611a1a6126d5565b5b8135611a2b848260208601611942565b91505092915050565b600081359050611a4381612bbd565b92915050565b600060208284031215611a5f57611a5e6126e4565b5b6000611a6d84828501611984565b91505092915050565b60008060408385031215611a8d57611a8c6126e4565b5b6000611a9b85828601611984565b9250506020611aac85828601611984565b9150509250929050565b600080600060608486031215611acf57611ace6126e4565b5b6000611add86828701611984565b9350506020611aee86828701611984565b9250506040611aff86828701611a34565b9150509250925092565b60008060008060808587031215611b2357611b226126e4565b5b6000611b3187828801611984565b9450506020611b4287828801611984565b9350506040611b5387828801611a34565b925050606085013567ffffffffffffffff811115611b7457611b736126df565b5b611b80878288016119d8565b91505092959194509250565b60008060408385031215611ba357611ba26126e4565b5b6000611bb185828601611984565b9250506020611bc285828601611999565b9150509250929050565b60008060408385031215611be357611be26126e4565b5b6000611bf185828601611984565b925050602083013567ffffffffffffffff811115611c1257611c116126df565b5b611c1e85828601611a06565b9150509250929050565b60008060408385031215611c3f57611c3e6126e4565b5b6000611c4d85828601611984565b9250506020611c5e85828601611a34565b9150509250929050565b600060208284031215611c7e57611c7d6126e4565b5b6000611c8c848285016119ae565b91505092915050565b600060208284031215611cab57611caa6126e4565b5b6000611cb9848285016119c3565b91505092915050565b600060208284031215611cd857611cd76126e4565b5b6000611ce684828501611a34565b91505092915050565b611cf881612457565b82525050565b611d0781612469565b82525050565b6000611d1882612359565b611d22818561236f565b9350611d328185602086016124da565b611d3b816126e9565b840191505092915050565b6000611d5182612364565b611d5b8185612380565b9350611d6b8185602086016124da565b611d74816126e9565b840191505092915050565b6000611d8a82612364565b611d948185612391565b9350611da48185602086016124da565b80840191505092915050565b6000611dbd603283612380565b9150611dc8826126fa565b604082019050919050565b6000611de0602583612380565b9150611deb82612749565b604082019050919050565b6000611e03601c83612380565b9150611e0e82612798565b602082019050919050565b6000611e26602483612380565b9150611e31826127c1565b604082019050919050565b6000611e49601983612380565b9150611e5482612810565b602082019050919050565b6000611e6c602c83612380565b9150611e7782612839565b604082019050919050565b6000611e8f603883612380565b9150611e9a82612888565b604082019050919050565b6000611eb2602a83612380565b9150611ebd826128d7565b604082019050919050565b6000611ed5602983612380565b9150611ee082612926565b604082019050919050565b6000611ef8602e83612380565b9150611f0382612975565b604082019050919050565b6000611f1b602083612380565b9150611f26826129c4565b602082019050919050565b6000611f3e603183612380565b9150611f49826129ed565b604082019050919050565b6000611f61602c83612380565b9150611f6c82612a3c565b604082019050919050565b6000611f84602f83612380565b9150611f8f82612a8b565b604082019050919050565b6000611fa7602183612380565b9150611fb282612ada565b604082019050919050565b6000611fca603183612380565b9150611fd582612b29565b604082019050919050565b611fe9816124c1565b82525050565b6000611ffb8285611d7f565b91506120078284611d7f565b91508190509392505050565b60006020820190506120286000830184611cef565b92915050565b60006080820190506120436000830187611cef565b6120506020830186611cef565b61205d6040830185611fe0565b818103606083015261206f8184611d0d565b905095945050505050565b600060208201905061208f6000830184611cfe565b92915050565b600060208201905081810360008301526120af8184611d46565b905092915050565b600060208201905081810360008301526120d081611db0565b9050919050565b600060208201905081810360008301526120f081611dd3565b9050919050565b6000602082019050818103600083015261211081611df6565b9050919050565b6000602082019050818103600083015261213081611e19565b9050919050565b6000602082019050818103600083015261215081611e3c565b9050919050565b6000602082019050818103600083015261217081611e5f565b9050919050565b6000602082019050818103600083015261219081611e82565b9050919050565b600060208201905081810360008301526121b081611ea5565b9050919050565b600060208201905081810360008301526121d081611ec8565b9050919050565b600060208201905081810360008301526121f081611eeb565b9050919050565b6000602082019050818103600083015261221081611f0e565b9050919050565b6000602082019050818103600083015261223081611f31565b9050919050565b6000602082019050818103600083015261225081611f54565b9050919050565b6000602082019050818103600083015261227081611f77565b9050919050565b6000602082019050818103600083015261229081611f9a565b9050919050565b600060208201905081810360008301526122b081611fbd565b9050919050565b60006020820190506122cc6000830184611fe0565b92915050565b60006122dc6122ed565b90506122e8828261253f565b919050565b6000604051905090565b600067ffffffffffffffff821115612312576123116126a6565b5b61231b826126e9565b9050602081019050919050565b600067ffffffffffffffff821115612343576123426126a6565b5b61234c826126e9565b9050602081019050919050565b600081519050919050565b600081519050919050565b600082825260208201905092915050565b600082825260208201905092915050565b600081905092915050565b60006123a7826124c1565b91506123b2836124c1565b9250827fffffffffffffffffffffffffffffffffffffffffffffffffffffffffffffffff038211156123e7576123e66125ea565b5b828201905092915050565b60006123fd826124c1565b9150612408836124c1565b92508261241857612417612619565b5b828204905092915050565b600061242e826124c1565b9150612439836124c1565b92508282101561244c5761244b6125ea565b5b828203905092915050565b6000612462826124a1565b9050919050565b60008115159050919050565b60007fffffffff0000000000000000000000000000000000000000000000000000000082169050919050565b600073ffffffffffffffffffffffffffffffffffffffff82169050919050565b6000819050919050565b82818337600083830152505050565b60005b838110156124f85780820151818401526020810190506124dd565b83811115612507576000848401525b50505050565b6000600282049050600182168061252557607f821691505b6020821081141561253957612538612648565b5b50919050565b612548826126e9565b810181811067ffffffffffffffff82111715612567576125666126a6565b5b80604052505050565b600061257b826124c1565b91507fffffffffffffffffffffffffffffffffffffffffffffffffffffffffffffffff8214156125ae576125ad6125ea565b5b600182019050919050565b60006125c4826124c1565b91506125cf836124c1565b9250826125df576125de612619565b5b828206905092915050565b7f4e487b7100000000000000000000000000000000000000000000000000000000600052601160045260246000fd5b7f4e487b7100000000000000000000000000000000000000000000000000000000600052601260045260246000fd5b7f4e487b7100000000000000000000000000000000000000000000000000000000600052602260045260246000fd5b7f4e487b7100000000000000000000000000000000000000000000000000000000600052603260045260246000fd5b7f4e487b7100000000000000000000000000000000000000000000000000000000600052604160045260246000fd5b600080fd5b600080fd5b600080fd5b600080fd5b6000601f19601f8301169050919050565b7f4552433732313a207472616e7366657220746f206e6f6e20455243373231526560008201527f63656976657220696d706c656d656e7465720000000000000000000000000000602082015250565b7f4552433732313a207472616e736665722066726f6d20696e636f72726563742060008201527f6f776e6572000000000000000000000000000000000000000000000000000000602082015250565b7f4552433732313a20746f6b656e20616c7265616479206d696e74656400000000600082015250565b7f4552433732313a207472616e7366657220746f20746865207a65726f2061646460008201527f7265737300000000000000000000000000000000000000000000000000000000602082015250565b7f4552433732313a20617070726f766520746f2063616c6c657200000000000000600082015250565b7f4552433732313a206f70657261746f7220717565727920666f72206e6f6e657860008201527f697374656e7420746f6b656e0000000000000000000000000000000000000000602082015250565b7f4552433732313a20617070726f76652063616c6c6572206973206e6f74206f7760008201527f6e6572206e6f7220617070726f76656420666f7220616c6c0000000000000000602082015250565b7f4552433732313a2062616c616e636520717565727920666f7220746865207a6560008201527f726f206164647265737300000000000000000000000000000000000000000000602082015250565b7f4552433732313a206f776e657220717565727920666f72206e6f6e657869737460008201527f656e7420746f6b656e0000000000000000000000000000000000000000000000602082015250565b7f45524337323155524953746f726167653a2055524920736574206f66206e6f6e60008201527f6578697374656e7420746f6b656e000000000000000000000000000000000000602082015250565b7f4552433732313a206d696e7420746f20746865207a65726f2061646472657373600082015250565b7f45524337323155524953746f726167653a2055524920717565727920666f722060008201527f6e6f6e6578697374656e7420746f6b656e000000000000000000000000000000602082015250565b7f4552433732313a20617070726f76656420717565727920666f72206e6f6e657860008201527f697374656e7420746f6b656e0000000000000000000000000000000000000000602082015250565b7f4552433732314d657461646174613a2055524920717565727920666f72206e6f60008201527f6e6578697374656e7420746f6b656e0000000000000000000000000000000000602082015250565b7f4552433732313a20617070726f76616c20746f2063757272656e74206f776e6560008201527f7200000000000000000000000000000000000000000000000000000000000000602082015250565b7f4552433732313a207472616e736665722063616c6c6572206973206e6f74206f60008201527f776e6572206e6f7220617070726f766564000000000000000000000000000000602082015250565b612b8181612457565b8114612b8c57600080fd5b50565b612b9881612469565b8114612ba357600080fd5b50565b612baf81612475565b8114612bba57600080fd5b50565b612bc6816124c1565b8114612bd157600080fd5b5056fea2646970667358221220b504ea9228139a48d9218a2b23cb69c1ba38177f5c8674a916558af35ff9813664736f6c63430008050033",
  "immutableReferences": {},
  "source": "// contracts/AppStore.sol\n// SPDX-License-Identifier: MIT\npragma solidity ^0.8.4;\n\nimport \"./AppNFT.sol\";\n\ncontract AppStore {\n\n    AppNFT public appNTF;\n\n    /**\n     * App Property\n     * @price: The price of app / wei\n     * @seller: Who sell this app\n     * @buyers: Who buy this app\n     */\n    struct AppProperty {\n        uint price;\n        address payable seller;\n        mapping(address => bool) buyers;\n    }\n\n    /**\n     * AppNTF `TokenId(uint256)` => `AppProperty`\n     */\n    mapping(uint256 => AppProperty) public appMap;\n\n    // events\n    event OnSell(address seller, uint256 tokenId, uint amount);\n    event OnBuy(address buyer, address seller, uint256 tokenId, uint amount);\n    event OnVerify(bool verified, uint256 tokenId);\n\n    constructor() {\n        appNTF = new AppNFT();\n    }\n\n    /**\n     * Get the NFT item count\n     */\n    function totalCount() public view returns (uint256) {\n        return appNTF.currentCount();\n    }\n\n    /**\n     * Get the NFT tokenURI\n     */\n    function getTokenURI(uint256 tokenId) public view returns (string memory) {\n        return appNTF.tokenURI(tokenId);\n    }\n\n    /**\n     * The method developer use to publish app\n     */\n    function sell(uint amount, string memory tokenURI) public returns (uint256)  {\n        // create NTF token\n        uint ntfToken = appNTF.add(msg.sender, tokenURI);\n\n        // record app property: the price\n        appMap[ntfToken].seller = payable(msg.sender);\n        appMap[ntfToken].price = amount;\n\n        emit OnSell(msg.sender, ntfToken, amount);\n        \n        return ntfToken;\n    }\n\n    /**\n     * The method consumers use to buy app\n     */\n    function buy(uint256 tokenId) public payable returns (bool)  {\n        AppProperty storage buyApp = appMap[tokenId];\n    \n        require(buyApp.seller != address(0), \"Error: There is no app pointed to by this tokenId\");\n        require(buyApp.price == msg.value, \"Error: The purchase price for this app is incorrect\");\n        require(buyApp.buyers[msg.sender] != true, \"Error: This user has already purchased\");\n\n        // transform eth to seller\n        buyApp.seller.transfer(msg.value);\n\n        // add buyers to buyApp.buyers \n        buyApp.buyers[msg.sender] = true;\n\n        emit OnBuy(msg.sender, buyApp.seller, tokenId, msg.value);\n\n        return true;\n    }\n\n    /**\n     * The method developer use to verify consumer permissions\n     *\n     */\n    function verify(uint256 tokenId) public returns (bool) {\n        require(appMap[tokenId].seller != address(0), \"Error: There is no app pointed to by this tokenId\");\n\n        bool verified = appMap[tokenId].buyers[msg.sender] == true;\n\n        emit OnVerify(verified, tokenId);\n\n        return verified;\n    }\n\n    // Fallback: reverts if Ether is sent to this smart-contract by mistake\n    fallback () external {\n        revert();\n    }\n}",
  "sourcePath": "/Users/guzhihao/Documents/code/web3/dapp/boilerplate/contracts/AppStore.sol",
  "compiler": {
    "name": "solc",
    "version": "0.8.5+commit.a4f2e591.Emscripten.clang"
  },
  "schemaVersion": "3.4.7",
  "updatedAt": "2022-06-10T15:33:15.830Z",
  "networkType": "ethereum",
  "devdoc": {
    "kind": "dev",
    "methods": {},
    "version": 1
  },
  "userdoc": {
    "kind": "user",
    "methods": {
      "appMap(uint256)": {
        "notice": "AppNTF `TokenId(uint256)` => `AppProperty`"
      },
      "buy(uint256)": {
        "notice": "The method consumers use to buy app"
      },
      "getTokenURI(uint256)": {
        "notice": "Get the NFT tokenURI"
      },
      "sell(uint256,string)": {
        "notice": "The method developer use to publish app"
      },
      "totalCount()": {
        "notice": "Get the NFT item count"
      },
      "verify(uint256)": {
        "notice": "The method developer use to verify consumer permissions"
      }
    },
    "version": 1
  }
}